{
  "_format": "hh-sol-artifact-1",
  "contractName": "Decentralize_Exchange",
  "sourceName": "contracts/dex_main.sol",
  "abi": [
    {
      "inputs": [
        {
          "internalType": "address",
          "name": "tokenA",
          "type": "address"
        },
        {
          "internalType": "address",
          "name": "tokenB",
          "type": "address"
        }
      ],
      "stateMutability": "nonpayable",
      "type": "constructor"
    },
    {
      "inputs": [
        {
          "internalType": "uint256",
          "name": "token_A",
          "type": "uint256"
        },
        {
          "internalType": "uint256",
          "name": "token_B",
          "type": "uint256"
        }
      ],
      "name": "addLiquidty_Pool",
      "outputs": [],
      "stateMutability": "nonpayable",
      "type": "function"
    },
    {
      "inputs": [
        {
          "internalType": "address",
          "name": "contractadress",
          "type": "address"
        }
      ],
      "name": "bind_t1_contract",
      "outputs": [],
      "stateMutability": "nonpayable",
      "type": "function"
    },
    {
      "inputs": [
        {
          "internalType": "address",
          "name": "contractadress",
          "type": "address"
        }
      ],
      "name": "bind_t2_contract",
      "outputs": [],
      "stateMutability": "nonpayable",
      "type": "function"
    },
    {
      "inputs": [
        {
          "internalType": "uint256",
          "name": "tokenB",
          "type": "uint256"
        }
      ],
      "name": "estimate_tokenA",
      "outputs": [
        {
          "internalType": "uint256",
          "name": "new_TokenB",
          "type": "uint256"
        },
        {
          "internalType": "uint256",
          "name": "new_TokenA",
          "type": "uint256"
        },
        {
          "internalType": "uint256",
          "name": "given_TokenA",
          "type": "uint256"
        },
        {
          "internalType": "uint256",
          "name": "price_TokenA",
          "type": "uint256"
        },
        {
          "internalType": "uint256",
          "name": "price_TokenB",
          "type": "uint256"
        }
      ],
      "stateMutability": "view",
      "type": "function"
    },
    {
      "inputs": [
        {
          "internalType": "uint256",
          "name": "tokenA",
          "type": "uint256"
        }
      ],
      "name": "estimate_tokenB",
      "outputs": [
        {
          "internalType": "uint256",
          "name": "new_TokenB",
          "type": "uint256"
        },
        {
          "internalType": "uint256",
          "name": "new_TokenA",
          "type": "uint256"
        },
        {
          "internalType": "uint256",
          "name": "given_TokenB",
          "type": "uint256"
        },
        {
          "internalType": "uint256",
          "name": "price_TokenA",
          "type": "uint256"
        },
        {
          "internalType": "uint256",
          "name": "price_TokenB",
          "type": "uint256"
        }
      ],
      "stateMutability": "view",
      "type": "function"
    },
    {
      "inputs": [],
      "name": "getPoolDetails",
      "outputs": [
        {
          "internalType": "uint256",
          "name": "TokenA_Balance",
          "type": "uint256"
        },
        {
          "internalType": "uint256",
          "name": "TokenB_Balance",
          "type": "uint256"
        },
        {
          "internalType": "uint256",
          "name": "total_value",
          "type": "uint256"
        },
        {
          "internalType": "uint256",
          "name": "CONSTANT",
          "type": "uint256"
        },
        {
          "internalType": "uint256",
          "name": "Each_TokenA_Value",
          "type": "uint256"
        },
        {
          "internalType": "uint256",
          "name": "Each_TokenB_Value",
          "type": "uint256"
        }
      ],
      "stateMutability": "view",
      "type": "function"
    },
    {
      "inputs": [
        {
          "internalType": "address",
          "name": "",
          "type": "address"
        }
      ],
      "name": "liquidityProvider",
      "outputs": [
        {
          "internalType": "uint256",
          "name": "value",
          "type": "uint256"
        },
        {
          "internalType": "uint256",
          "name": "token_A_Balance",
          "type": "uint256"
        },
        {
          "internalType": "uint256",
          "name": "token_B_Balance",
          "type": "uint256"
        },
        {
          "internalType": "uint256",
          "name": "tradingfee",
          "type": "uint256"
        }
      ],
      "stateMutability": "view",
      "type": "function"
    },
    {
      "inputs": [
        {
          "internalType": "uint256",
          "name": "tokenB",
          "type": "uint256"
        }
      ],
      "name": "swapTokenA",
      "outputs": [
        {
          "internalType": "uint256",
          "name": "given_TokenA",
          "type": "uint256"
        }
      ],
      "stateMutability": "nonpayable",
      "type": "function"
    },
    {
      "inputs": [
        {
          "internalType": "uint256",
          "name": "tokenA",
          "type": "uint256"
        }
      ],
      "name": "swapTokenB",
      "outputs": [
        {
          "internalType": "uint256",
          "name": "given_TokenB",
          "type": "uint256"
        }
      ],
      "stateMutability": "nonpayable",
      "type": "function"
    }
  ],
  "bytecode": "0x6080604052670de0b6b3a764000060025560025460016200002191906200014c565b60065560025460016200003591906200014c565b6007553480156200004557600080fd5b5060405162001c1a38038062001c1a83398181016040528101906200006b91906200010b565b816000806101000a81548173ffffffffffffffffffffffffffffffffffffffff021916908373ffffffffffffffffffffffffffffffffffffffff16021790555080600160006101000a81548173ffffffffffffffffffffffffffffffffffffffff021916908373ffffffffffffffffffffffffffffffffffffffff160217905550505062000234565b60008151905062000105816200021a565b92915050565b600080604083850312156200011f57600080fd5b60006200012f85828601620000f4565b92505060206200014285828601620000f4565b9150509250929050565b60006200015982620001e1565b91506200016683620001e1565b9250817fffffffffffffffffffffffffffffffffffffffffffffffffffffffffffffffff0483118215151615620001a257620001a1620001eb565b5b828202905092915050565b6000620001ba82620001c1565b9050919050565b600073ffffffffffffffffffffffffffffffffffffffff82169050919050565b6000819050919050565b7f4e487b7100000000000000000000000000000000000000000000000000000000600052601160045260246000fd5b6200022581620001ad565b81146200023157600080fd5b50565b6119d680620002446000396000f3fe608060405234801561001057600080fd5b50600436106100935760003560e01c8063a012b3cf11610066578063a012b3cf14610134578063a2687c6314610164578063aca34c1114610197578063d70a5e88146101ba578063fe0721ad146101ee57610093565b80630c5184a11461009857806310d88699146100c85780634db357c7146100e45780634f45beda14610118575b600080fd5b6100b260048036038101906100ad9190611338565b61020a565b6040516100bf91906115ae565b60405180910390f35b6100e260048036038101906100dd91906112e6565b61056d565b005b6100fe60048036038101906100f99190611338565b6105b0565b60405161010f95949392919061160e565b60405180910390f35b610132600480360381019061012d919061138a565b6106b4565b005b61014e60048036038101906101499190611338565b610887565b60405161015b91906115ae565b60405180910390f35b61017e600480360381019061017991906112e6565b610bea565b60405161018e94939291906115c9565b60405180910390f35b61019f610c1a565b6040516101b196959493929190611661565b60405180910390f35b6101d460048036038101906101cf9190611338565b610c49565b6040516101e595949392919061160e565b60405180910390f35b610208600480360381019061020391906112e6565b610d4d565b005b60008060045411610250576040517f08c379a00000000000000000000000000000000000000000000000000000000081526004016102479061152e565b60405180910390fd5b600060055411610295576040517f08c379a000000000000000000000000000000000000000000000000000000000815260040161028c9061152e565b60405180910390fd5b8161029f33610d91565b116102df576040517f08c379a00000000000000000000000000000000000000000000000000000000081526004016102d69061154e565b60405180910390fd5b6000826005546102ef91906116d3565b90506000816003546103019190611729565b90508060045411610347576040517f08c379a000000000000000000000000000000000000000000000000000000000815260040161033e9061158e565b60405180910390fd5b8060045461035591906117b4565b925060008160025460045461036a919061175a565b6103749190611729565b9050600083600254600554610389919061175a565b6103939190611729565b9050620f4240841115806103aa5750620f42408311155b156103ea576040517f08c379a00000000000000000000000000000000000000000000000000000000081526004016103e19061150e565b60405180910390fd5b8260048190555083600581905550816006819055508060078190555060008054906101000a900473ffffffffffffffffffffffffffffffffffffffff1673ffffffffffffffffffffffffffffffffffffffff16639c8e29fe33876040518363ffffffff1660e01b81526004016104619291906114e5565b602060405180830381600087803b15801561047b57600080fd5b505af115801561048f573d6000803e3d6000fd5b505050506040513d601f19601f820116820180604052508101906104b3919061130f565b50600160009054906101000a900473ffffffffffffffffffffffffffffffffffffffff1673ffffffffffffffffffffffffffffffffffffffff16635f69fa4a30886040518363ffffffff1660e01b81526004016105119291906114e5565b602060405180830381600087803b15801561052b57600080fd5b505af115801561053f573d6000803e3d6000fd5b505050506040513d601f19601f82011682018060405250810190610563919061130f565b5050505050919050565b806000806101000a81548173ffffffffffffffffffffffffffffffffffffffff021916908373ffffffffffffffffffffffffffffffffffffffff16021790555050565b600080600080600080600454116105fc576040517f08c379a00000000000000000000000000000000000000000000000000000000081526004016105f39061152e565b60405180910390fd5b600060055411610641576040517f08c379a00000000000000000000000000000000000000000000000000000000081526004016106389061152e565b60405180910390fd5b8560055461064f91906116d3565b94508460035461065f9190611729565b93508360045461066f91906117b4565b925083600254600454610682919061175a565b61068c9190611729565b91508460025460055461069f919061175a565b6106a99190611729565b905091939590929450565b816106be33610ef6565b111580156106d45750806106d133610d91565b11155b15610714576040517f08c379a000000000000000000000000000000000000000000000000000000000815260040161070b9061154e565b60405180910390fd5b600082600654610724919061175a565b9050600082600754610736919061175a565b905080821461077a576040517f08c379a00000000000000000000000000000000000000000000000000000000081526004016107719061156e565b60405180910390fd5b836004600082825461078c91906116d3565b9250508190555082600560008282546107a591906116d3565b9250508190555060006005546004546107be919061175a565b9050806003819055506000600960003373ffffffffffffffffffffffffffffffffffffffff1673ffffffffffffffffffffffffffffffffffffffff16815260200190815260200160002090508284826000015461081b91906116d3565b61082591906116d3565b816000018190555085816001015461083d91906116d3565b816001018190555084816002015461085591906116d3565b816002018190555060008160030181905550610872333088611059565b5061087e333087611114565b50505050505050565b600080600454116108cd576040517f08c379a00000000000000000000000000000000000000000000000000000000081526004016108c49061152e565b60405180910390fd5b600060055411610912576040517f08c379a00000000000000000000000000000000000000000000000000000000081526004016109099061152e565b60405180910390fd5b8161091c33610ef6565b1161095c576040517f08c379a00000000000000000000000000000000000000000000000000000000081526004016109539061154e565b60405180910390fd5b60008260045461096c91906116d3565b905060008160035461097e9190611729565b905080600554116109c4576040517f08c379a00000000000000000000000000000000000000000000000000000000081526004016109bb9061158e565b60405180910390fd5b806005546109d291906117b4565b92506000826002546004546109e7919061175a565b6109f19190611729565b9050600082600254600554610a06919061175a565b610a109190611729565b9050620f424083111580610a275750620f42408411155b15610a67576040517f08c379a0000000000000000000000000000000000000000000000000000000008152600401610a5e9061150e565b60405180910390fd5b83600481905550826005819055508160068190555080600781905550600160009054906101000a900473ffffffffffffffffffffffffffffffffffffffff1673ffffffffffffffffffffffffffffffffffffffff16635f69fa4a33876040518363ffffffff1660e01b8152600401610ae09291906114e5565b602060405180830381600087803b158015610afa57600080fd5b505af1158015610b0e573d6000803e3d6000fd5b505050506040513d601f19601f82011682018060405250810190610b32919061130f565b5060008054906101000a900473ffffffffffffffffffffffffffffffffffffffff1673ffffffffffffffffffffffffffffffffffffffff16639c8e29fe30886040518363ffffffff1660e01b8152600401610b8e9291906114e5565b602060405180830381600087803b158015610ba857600080fd5b505af1158015610bbc573d6000803e3d6000fd5b505050506040513d601f19601f82011682018060405250810190610be0919061130f565b5050505050919050565b60096020528060005260406000206000915090508060000154908060010154908060020154908060030154905084565b600080600080600080600454600554600854600354600654600754955095509550955095509550909192939495565b60008060008060008060045411610c95576040517f08c379a0000000000000000000000000000000000000000000000000000000008152600401610c8c9061152e565b60405180910390fd5b600060055411610cda576040517f08c379a0000000000000000000000000000000000000000000000000000000008152600401610cd19061152e565b60405180910390fd5b85600454610ce891906116d3565b935083600354610cf89190611729565b945084600554610d0891906117b4565b925083600254600454610d1b919061175a565b610d259190611729565b915084600254600554610d38919061175a565b610d429190611729565b905091939590929450565b80600160006101000a81548173ffffffffffffffffffffffffffffffffffffffff021916908373ffffffffffffffffffffffffffffffffffffffff16021790555050565b6000610e4460008054906101000a900473ffffffffffffffffffffffffffffffffffffffff1673ffffffffffffffffffffffffffffffffffffffff16637c6f5374846040518263ffffffff1660e01b8152600401610def9190611493565b60206040518083038186803b158015610e0757600080fd5b505afa158015610e1b573d6000803e3d6000fd5b505050506040513d601f19601f82011682018060405250810190610e3f9190611361565b6111d0565b600160009054906101000a900473ffffffffffffffffffffffffffffffffffffffff1673ffffffffffffffffffffffffffffffffffffffff16638f5da2ef836040518263ffffffff1660e01b8152600401610e9f9190611493565b60206040518083038186803b158015610eb757600080fd5b505afa158015610ecb573d6000803e3d6000fd5b505050506040513d601f19601f82011682018060405250810190610eef9190611361565b9050919050565b6000610fa960008054906101000a900473ffffffffffffffffffffffffffffffffffffffff1673ffffffffffffffffffffffffffffffffffffffff16637c6f5374846040518263ffffffff1660e01b8152600401610f549190611493565b60206040518083038186803b158015610f6c57600080fd5b505afa158015610f80573d6000803e3d6000fd5b505050506040513d601f19601f82011682018060405250810190610fa49190611361565b6111d0565b60008054906101000a900473ffffffffffffffffffffffffffffffffffffffff1673ffffffffffffffffffffffffffffffffffffffff16637c6f5374836040518263ffffffff1660e01b81526004016110029190611493565b60206040518083038186803b15801561101a57600080fd5b505afa15801561102e573d6000803e3d6000fd5b505050506040513d601f19601f820116820180604052508101906110529190611361565b9050919050565b60008060009054906101000a900473ffffffffffffffffffffffffffffffffffffffff1673ffffffffffffffffffffffffffffffffffffffff1663fbfcf8668585856040518463ffffffff1660e01b81526004016110b9939291906114ae565b602060405180830381600087803b1580156110d357600080fd5b505af11580156110e7573d6000803e3d6000fd5b505050506040513d601f19601f8201168201806040525081019061110b919061130f565b90509392505050565b6000600160009054906101000a900473ffffffffffffffffffffffffffffffffffffffff1673ffffffffffffffffffffffffffffffffffffffff166332233c758585856040518463ffffffff1660e01b8152600401611175939291906114ae565b602060405180830381600087803b15801561118f57600080fd5b505af11580156111a3573d6000803e3d6000fd5b505050506040513d601f19601f820116820180604052508101906111c7919061130f565b90509392505050565b611266816040516024016111e491906115ae565b6040516020818303038152906040527ff5b1bba9000000000000000000000000000000000000000000000000000000007bffffffffffffffffffffffffffffffffffffffffffffffffffffffff19166020820180517bffffffffffffffffffffffffffffffffffffffffffffffffffffffff8381831617835250505050611269565b50565b60008151905060006a636f6e736f6c652e6c6f679050602083016000808483855afa5050505050565b6000813590506112a18161195b565b92915050565b6000815190506112b681611972565b92915050565b6000813590506112cb81611989565b92915050565b6000815190506112e081611989565b92915050565b6000602082840312156112f857600080fd5b600061130684828501611292565b91505092915050565b60006020828403121561132157600080fd5b600061132f848285016112a7565b91505092915050565b60006020828403121561134a57600080fd5b6000611358848285016112bc565b91505092915050565b60006020828403121561137357600080fd5b6000611381848285016112d1565b91505092915050565b6000806040838503121561139d57600080fd5b60006113ab858286016112bc565b92505060206113bc858286016112bc565b9150509250929050565b6113cf816117e8565b82525050565b60006113e26016836116c2565b91506113ed8261188e565b602082019050919050565b6000611405600e836116c2565b9150611410826118b7565b602082019050919050565b60006114286012836116c2565b9150611433826118e0565b602082019050919050565b600061144b600f836116c2565b915061145682611909565b602082019050919050565b600061146e6018836116c2565b915061147982611932565b602082019050919050565b61148d81611826565b82525050565b60006020820190506114a860008301846113c6565b92915050565b60006060820190506114c360008301866113c6565b6114d060208301856113c6565b6114dd6040830184611484565b949350505050565b60006040820190506114fa60008301856113c6565b6115076020830184611484565b9392505050565b60006020820190508181036000830152611527816113d5565b9050919050565b60006020820190508181036000830152611547816113f8565b9050919050565b600060208201905081810360008301526115678161141b565b9050919050565b600060208201905081810360008301526115878161143e565b9050919050565b600060208201905081810360008301526115a781611461565b9050919050565b60006020820190506115c36000830184611484565b92915050565b60006080820190506115de6000830187611484565b6115eb6020830186611484565b6115f86040830185611484565b6116056060830184611484565b95945050505050565b600060a0820190506116236000830188611484565b6116306020830187611484565b61163d6040830186611484565b61164a6060830185611484565b6116576080830184611484565b9695505050505050565b600060c0820190506116766000830189611484565b6116836020830188611484565b6116906040830187611484565b61169d6060830186611484565b6116aa6080830185611484565b6116b760a0830184611484565b979650505050505050565b600082825260208201905092915050565b60006116de82611826565b91506116e983611826565b9250827fffffffffffffffffffffffffffffffffffffffffffffffffffffffffffffffff0382111561171e5761171d611830565b5b828201905092915050565b600061173482611826565b915061173f83611826565b92508261174f5761174e61185f565b5b828204905092915050565b600061176582611826565b915061177083611826565b9250817fffffffffffffffffffffffffffffffffffffffffffffffffffffffffffffffff04831182151516156117a9576117a8611830565b5b828202905092915050565b60006117bf82611826565b91506117ca83611826565b9250828210156117dd576117dc611830565b5b828203905092915050565b60006117f382611806565b9050919050565b60008115159050919050565b600073ffffffffffffffffffffffffffffffffffffffff82169050919050565b6000819050919050565b7f4e487b7100000000000000000000000000000000000000000000000000000000600052601160045260246000fd5b7f4e487b7100000000000000000000000000000000000000000000000000000000600052601260045260246000fd5b7f506f6f6c20537461626c69747920436f6c6c6170736500000000000000000000600082015250565b7f5a65726f204c6971756964697479000000000000000000000000000000000000600082015250565b7f6e6f7420656e6f7567682062616c616e63650000000000000000000000000000600082015250565b7f4e6f7420457175616c2056616c75650000000000000000000000000000000000600082015250565b7f4e6f7420456e6f75676820546f6b656e73204120686176650000000000000000600082015250565b611964816117e8565b811461196f57600080fd5b50565b61197b816117fa565b811461198657600080fd5b50565b61199281611826565b811461199d57600080fd5b5056fea26469706673582212205758de7a628c452c47d30dc9e2d088db4c723e48e4c61bf7a9c62a66d813214964736f6c63430008040033",
  "linkReferences": {},
  "deployedLinkReferences": {}
}