{
  "_format": "hh-sol-artifact-1",
  "contractName": "Monster_Token",
  "sourceName": "contracts/monster_token.sol",
  "abi": [
    {
      "inputs": [
        {
          "internalType": "string",
          "name": "name",
          "type": "string"
        },
        {
          "internalType": "string",
          "name": "symbol",
          "type": "string"
        }
      ],
      "stateMutability": "nonpayable",
      "type": "constructor"
    },
    {
      "anonymous": false,
      "inputs": [
        {
          "indexed": true,
          "internalType": "address",
          "name": "owner",
          "type": "address"
        },
        {
          "indexed": true,
          "internalType": "address",
          "name": "spender",
          "type": "address"
        },
        {
          "indexed": false,
          "internalType": "uint256",
          "name": "value",
          "type": "uint256"
        }
      ],
      "name": "Approval",
      "type": "event"
    },
    {
      "anonymous": false,
      "inputs": [
        {
          "indexed": true,
          "internalType": "address",
          "name": "from",
          "type": "address"
        },
        {
          "indexed": true,
          "internalType": "address",
          "name": "to",
          "type": "address"
        },
        {
          "indexed": false,
          "internalType": "uint256",
          "name": "value",
          "type": "uint256"
        }
      ],
      "name": "Transfer",
      "type": "event"
    },
    {
      "inputs": [
        {
          "internalType": "uint256",
          "name": "_tokens",
          "type": "uint256"
        }
      ],
      "name": "addTokens_Monster",
      "outputs": [],
      "stateMutability": "nonpayable",
      "type": "function"
    },
    {
      "inputs": [
        {
          "internalType": "address",
          "name": "owner",
          "type": "address"
        },
        {
          "internalType": "address",
          "name": "spender",
          "type": "address"
        }
      ],
      "name": "allowance",
      "outputs": [
        {
          "internalType": "uint256",
          "name": "",
          "type": "uint256"
        }
      ],
      "stateMutability": "view",
      "type": "function"
    },
    {
      "inputs": [
        {
          "internalType": "address",
          "name": "spender",
          "type": "address"
        },
        {
          "internalType": "uint256",
          "name": "amount",
          "type": "uint256"
        }
      ],
      "name": "approve",
      "outputs": [
        {
          "internalType": "bool",
          "name": "",
          "type": "bool"
        }
      ],
      "stateMutability": "nonpayable",
      "type": "function"
    },
    {
      "inputs": [
        {
          "internalType": "address",
          "name": "to",
          "type": "address"
        },
        {
          "internalType": "uint256",
          "name": "tokens",
          "type": "uint256"
        }
      ],
      "name": "approve_MonsterToken",
      "outputs": [
        {
          "internalType": "bool",
          "name": "value",
          "type": "bool"
        }
      ],
      "stateMutability": "nonpayable",
      "type": "function"
    },
    {
      "inputs": [
        {
          "internalType": "address",
          "name": "account",
          "type": "address"
        }
      ],
      "name": "balanceOf",
      "outputs": [
        {
          "internalType": "uint256",
          "name": "",
          "type": "uint256"
        }
      ],
      "stateMutability": "view",
      "type": "function"
    },
    {
      "inputs": [
        {
          "internalType": "address",
          "name": "owner",
          "type": "address"
        }
      ],
      "name": "checkbalance_MonsterToken",
      "outputs": [
        {
          "internalType": "uint256",
          "name": "value",
          "type": "uint256"
        }
      ],
      "stateMutability": "view",
      "type": "function"
    },
    {
      "inputs": [],
      "name": "decimals",
      "outputs": [
        {
          "internalType": "uint8",
          "name": "",
          "type": "uint8"
        }
      ],
      "stateMutability": "view",
      "type": "function"
    },
    {
      "inputs": [
        {
          "internalType": "address",
          "name": "spender",
          "type": "address"
        },
        {
          "internalType": "uint256",
          "name": "subtractedValue",
          "type": "uint256"
        }
      ],
      "name": "decreaseAllowance",
      "outputs": [
        {
          "internalType": "bool",
          "name": "",
          "type": "bool"
        }
      ],
      "stateMutability": "nonpayable",
      "type": "function"
    },
    {
      "inputs": [
        {
          "internalType": "address",
          "name": "spender",
          "type": "address"
        },
        {
          "internalType": "uint256",
          "name": "addedValue",
          "type": "uint256"
        }
      ],
      "name": "increaseAllowance",
      "outputs": [
        {
          "internalType": "bool",
          "name": "",
          "type": "bool"
        }
      ],
      "stateMutability": "nonpayable",
      "type": "function"
    },
    {
      "inputs": [],
      "name": "name",
      "outputs": [
        {
          "internalType": "string",
          "name": "",
          "type": "string"
        }
      ],
      "stateMutability": "view",
      "type": "function"
    },
    {
      "inputs": [],
      "name": "symbol",
      "outputs": [
        {
          "internalType": "string",
          "name": "",
          "type": "string"
        }
      ],
      "stateMutability": "view",
      "type": "function"
    },
    {
      "inputs": [],
      "name": "totalSupply",
      "outputs": [
        {
          "internalType": "uint256",
          "name": "",
          "type": "uint256"
        }
      ],
      "stateMutability": "view",
      "type": "function"
    },
    {
      "inputs": [
        {
          "internalType": "address",
          "name": "to",
          "type": "address"
        },
        {
          "internalType": "uint256",
          "name": "amount",
          "type": "uint256"
        }
      ],
      "name": "transfer",
      "outputs": [
        {
          "internalType": "bool",
          "name": "",
          "type": "bool"
        }
      ],
      "stateMutability": "nonpayable",
      "type": "function"
    },
    {
      "inputs": [
        {
          "internalType": "address",
          "name": "from",
          "type": "address"
        },
        {
          "internalType": "address",
          "name": "to",
          "type": "address"
        },
        {
          "internalType": "uint256",
          "name": "amount",
          "type": "uint256"
        }
      ],
      "name": "transferFrom",
      "outputs": [
        {
          "internalType": "bool",
          "name": "",
          "type": "bool"
        }
      ],
      "stateMutability": "nonpayable",
      "type": "function"
    },
    {
      "inputs": [
        {
          "internalType": "address",
          "name": "from",
          "type": "address"
        },
        {
          "internalType": "address",
          "name": "to",
          "type": "address"
        },
        {
          "internalType": "uint256",
          "name": "amount",
          "type": "uint256"
        }
      ],
      "name": "transfer_MonsterToken",
      "outputs": [
        {
          "internalType": "bool",
          "name": "value",
          "type": "bool"
        }
      ],
      "stateMutability": "nonpayable",
      "type": "function"
    },
    {
      "inputs": [
        {
          "internalType": "address",
          "name": "to",
          "type": "address"
        },
        {
          "internalType": "uint256",
          "name": "amount",
          "type": "uint256"
        }
      ],
      "name": "transfer_to_MonsterToken",
      "outputs": [
        {
          "internalType": "bool",
          "name": "value",
          "type": "bool"
        }
      ],
      "stateMutability": "nonpayable",
      "type": "function"
    }
  ],
  "bytecode": "0x60806040523480156200001157600080fd5b50604051620019cf380380620019cf833981810160405281019062000037919062000197565b818181600390805190602001906200005192919062000075565b5080600490805190602001906200006a92919062000075565b50505050506200037a565b82805462000083906200029f565b90600052602060002090601f016020900481019282620000a75760008555620000f3565b82601f10620000c257805160ff1916838001178555620000f3565b82800160010185558215620000f3579182015b82811115620000f2578251825591602001919060010190620000d5565b5b50905062000102919062000106565b5090565b5b808211156200012157600081600090555060010162000107565b5090565b60006200013c620001368462000233565b6200020a565b9050828152602081018484840111156200015557600080fd5b6200016284828562000269565b509392505050565b600082601f8301126200017c57600080fd5b81516200018e84826020860162000125565b91505092915050565b60008060408385031215620001ab57600080fd5b600083015167ffffffffffffffff811115620001c657600080fd5b620001d4858286016200016a565b925050602083015167ffffffffffffffff811115620001f257600080fd5b62000200858286016200016a565b9150509250929050565b60006200021662000229565b9050620002248282620002d5565b919050565b6000604051905090565b600067ffffffffffffffff8211156200025157620002506200033a565b5b6200025c8262000369565b9050602081019050919050565b60005b83811015620002895780820151818401526020810190506200026c565b8381111562000299576000848401525b50505050565b60006002820490506001821680620002b857607f821691505b60208210811415620002cf57620002ce6200030b565b5b50919050565b620002e08262000369565b810181811067ffffffffffffffff821117156200030257620003016200033a565b5b80604052505050565b7f4e487b7100000000000000000000000000000000000000000000000000000000600052602260045260246000fd5b7f4e487b7100000000000000000000000000000000000000000000000000000000600052604160045260246000fd5b6000601f19601f8301169050919050565b611645806200038a6000396000f3fe608060405234801561001057600080fd5b50600436106101005760003560e01c8063395093511161009757806395d89b411161006657806395d89b41146102fb578063a457c2d714610319578063a9059cbb14610349578063dd62ed3e1461037957610100565b8063395093511461023b5780635f69fa4a1461026b57806370a082311461029b5780638f5da2ef146102cb57610100565b806323b872dd116100d357806323b872dd1461018d578063313ce567146101bd57806332233c75146101db5780633580df4f1461020b57610100565b806306fdde0314610105578063095ea7b31461012357806318160ddd146101535780631bc43f8d14610171575b600080fd5b61010d6103a9565b60405161011a9190611068565b60405180910390f35b61013d60048036038101906101389190610e6a565b61043b565b60405161014a919061104d565b60405180910390f35b61015b61045e565b604051610168919061118a565b60405180910390f35b61018b60048036038101906101869190610ea6565b610468565b005b6101a760048036038101906101a29190610e1b565b610488565b6040516101b4919061104d565b60405180910390f35b6101c56104b7565b6040516101d291906111a5565b60405180910390f35b6101f560048036038101906101f09190610e1b565b6104c0565b604051610202919061104d565b60405180910390f35b61022560048036038101906102209190610e6a565b6104d6565b604051610232919061104d565b60405180910390f35b61025560048036038101906102509190610e6a565b6104ea565b604051610262919061104d565b60405180910390f35b61028560048036038101906102809190610e6a565b610521565b604051610292919061104d565b60405180910390f35b6102b560048036038101906102b09190610db6565b610535565b6040516102c2919061118a565b60405180910390f35b6102e560048036038101906102e09190610db6565b61057d565b6040516102f2919061118a565b60405180910390f35b61030361058f565b6040516103109190611068565b60405180910390f35b610333600480360381019061032e9190610e6a565b610621565b604051610340919061104d565b60405180910390f35b610363600480360381019061035e9190610e6a565b610698565b604051610370919061104d565b60405180910390f35b610393600480360381019061038e9190610ddf565b6106bb565b6040516103a0919061118a565b60405180910390f35b6060600380546103b890611314565b80601f01602080910402602001604051908101604052809291908181526020018280546103e490611314565b80156104315780601f1061040657610100808354040283529160200191610431565b820191906000526020600020905b81548152906001019060200180831161041457829003601f168201915b5050505050905090565b600080610446610742565b905061045381858561074a565b600191505092915050565b6000600254905090565b61048533670de0b6b3a7640000836104809190611232565b610915565b50565b600080610493610742565b90506104a0858285610a75565b6104ab858585610b01565b60019150509392505050565b60006012905090565b60006104cd848484610488565b90509392505050565b60006104e2838361043b565b905092915050565b6000806104f5610742565b905061051681858561050785896106bb565b61051191906111dc565b61074a565b600191505092915050565b600061052d8383610698565b905092915050565b60008060008373ffffffffffffffffffffffffffffffffffffffff1673ffffffffffffffffffffffffffffffffffffffff168152602001908152602001600020549050919050565b600061058882610535565b9050919050565b60606004805461059e90611314565b80601f01602080910402602001604051908101604052809291908181526020018280546105ca90611314565b80156106175780601f106105ec57610100808354040283529160200191610617565b820191906000526020600020905b8154815290600101906020018083116105fa57829003601f168201915b5050505050905090565b60008061062c610742565b9050600061063a82866106bb565b90508381101561067f576040517f08c379a00000000000000000000000000000000000000000000000000000000081526004016106769061114a565b60405180910390fd5b61068c828686840361074a565b60019250505092915050565b6000806106a3610742565b90506106b0818585610b01565b600191505092915050565b6000600160008473ffffffffffffffffffffffffffffffffffffffff1673ffffffffffffffffffffffffffffffffffffffff16815260200190815260200160002060008373ffffffffffffffffffffffffffffffffffffffff1673ffffffffffffffffffffffffffffffffffffffff16815260200190815260200160002054905092915050565b600033905090565b600073ffffffffffffffffffffffffffffffffffffffff168373ffffffffffffffffffffffffffffffffffffffff1614156107ba576040517f08c379a00000000000000000000000000000000000000000000000000000000081526004016107b19061112a565b60405180910390fd5b600073ffffffffffffffffffffffffffffffffffffffff168273ffffffffffffffffffffffffffffffffffffffff16141561082a576040517f08c379a0000000000000000000000000000000000000000000000000000000008152600401610821906110aa565b60405180910390fd5b80600160008573ffffffffffffffffffffffffffffffffffffffff1673ffffffffffffffffffffffffffffffffffffffff16815260200190815260200160002060008473ffffffffffffffffffffffffffffffffffffffff1673ffffffffffffffffffffffffffffffffffffffff168152602001908152602001600020819055508173ffffffffffffffffffffffffffffffffffffffff168373ffffffffffffffffffffffffffffffffffffffff167f8c5be1e5ebec7d5bd14f71427d1e84f3dd0314c0f7b2291e5b200ac8c7c3b92583604051610908919061118a565b60405180910390a3505050565b600073ffffffffffffffffffffffffffffffffffffffff168273ffffffffffffffffffffffffffffffffffffffff161415610985576040517f08c379a000000000000000000000000000000000000000000000000000000000815260040161097c9061116a565b60405180910390fd5b61099160008383610d82565b80600260008282546109a391906111dc565b92505081905550806000808473ffffffffffffffffffffffffffffffffffffffff1673ffffffffffffffffffffffffffffffffffffffff16815260200190815260200160002060008282546109f891906111dc565b925050819055508173ffffffffffffffffffffffffffffffffffffffff16600073ffffffffffffffffffffffffffffffffffffffff167fddf252ad1be2c89b69c2b068fc378daa952ba7f163c4a11628f55a4df523b3ef83604051610a5d919061118a565b60405180910390a3610a7160008383610d87565b5050565b6000610a8184846106bb565b90507fffffffffffffffffffffffffffffffffffffffffffffffffffffffffffffffff8114610afb5781811015610aed576040517f08c379a0000000000000000000000000000000000000000000000000000000008152600401610ae4906110ca565b60405180910390fd5b610afa848484840361074a565b5b50505050565b600073ffffffffffffffffffffffffffffffffffffffff168373ffffffffffffffffffffffffffffffffffffffff161415610b71576040517f08c379a0000000000000000000000000000000000000000000000000000000008152600401610b689061110a565b60405180910390fd5b600073ffffffffffffffffffffffffffffffffffffffff168273ffffffffffffffffffffffffffffffffffffffff161415610be1576040517f08c379a0000000000000000000000000000000000000000000000000000000008152600401610bd89061108a565b60405180910390fd5b610bec838383610d82565b60008060008573ffffffffffffffffffffffffffffffffffffffff1673ffffffffffffffffffffffffffffffffffffffff16815260200190815260200160002054905081811015610c72576040517f08c379a0000000000000000000000000000000000000000000000000000000008152600401610c69906110ea565b60405180910390fd5b8181036000808673ffffffffffffffffffffffffffffffffffffffff1673ffffffffffffffffffffffffffffffffffffffff16815260200190815260200160002081905550816000808573ffffffffffffffffffffffffffffffffffffffff1673ffffffffffffffffffffffffffffffffffffffff1681526020019081526020016000206000828254610d0591906111dc565b925050819055508273ffffffffffffffffffffffffffffffffffffffff168473ffffffffffffffffffffffffffffffffffffffff167fddf252ad1be2c89b69c2b068fc378daa952ba7f163c4a11628f55a4df523b3ef84604051610d69919061118a565b60405180910390a3610d7c848484610d87565b50505050565b505050565b505050565b600081359050610d9b816115e1565b92915050565b600081359050610db0816115f8565b92915050565b600060208284031215610dc857600080fd5b6000610dd684828501610d8c565b91505092915050565b60008060408385031215610df257600080fd5b6000610e0085828601610d8c565b9250506020610e1185828601610d8c565b9150509250929050565b600080600060608486031215610e3057600080fd5b6000610e3e86828701610d8c565b9350506020610e4f86828701610d8c565b9250506040610e6086828701610da1565b9150509250925092565b60008060408385031215610e7d57600080fd5b6000610e8b85828601610d8c565b9250506020610e9c85828601610da1565b9150509250929050565b600060208284031215610eb857600080fd5b6000610ec684828501610da1565b91505092915050565b610ed88161129e565b82525050565b6000610ee9826111c0565b610ef381856111cb565b9350610f038185602086016112e1565b610f0c816113a4565b840191505092915050565b6000610f246023836111cb565b9150610f2f826113b5565b604082019050919050565b6000610f476022836111cb565b9150610f5282611404565b604082019050919050565b6000610f6a601d836111cb565b9150610f7582611453565b602082019050919050565b6000610f8d6026836111cb565b9150610f988261147c565b604082019050919050565b6000610fb06025836111cb565b9150610fbb826114cb565b604082019050919050565b6000610fd36024836111cb565b9150610fde8261151a565b604082019050919050565b6000610ff66025836111cb565b915061100182611569565b604082019050919050565b6000611019601f836111cb565b9150611024826115b8565b602082019050919050565b611038816112ca565b82525050565b611047816112d4565b82525050565b60006020820190506110626000830184610ecf565b92915050565b600060208201905081810360008301526110828184610ede565b905092915050565b600060208201905081810360008301526110a381610f17565b9050919050565b600060208201905081810360008301526110c381610f3a565b9050919050565b600060208201905081810360008301526110e381610f5d565b9050919050565b6000602082019050818103600083015261110381610f80565b9050919050565b6000602082019050818103600083015261112381610fa3565b9050919050565b6000602082019050818103600083015261114381610fc6565b9050919050565b6000602082019050818103600083015261116381610fe9565b9050919050565b600060208201905081810360008301526111838161100c565b9050919050565b600060208201905061119f600083018461102f565b92915050565b60006020820190506111ba600083018461103e565b92915050565b600081519050919050565b600082825260208201905092915050565b60006111e7826112ca565b91506111f2836112ca565b9250827fffffffffffffffffffffffffffffffffffffffffffffffffffffffffffffffff0382111561122757611226611346565b5b828201905092915050565b600061123d826112ca565b9150611248836112ca565b9250817fffffffffffffffffffffffffffffffffffffffffffffffffffffffffffffffff048311821515161561128157611280611346565b5b828202905092915050565b6000611297826112aa565b9050919050565b60008115159050919050565b600073ffffffffffffffffffffffffffffffffffffffff82169050919050565b6000819050919050565b600060ff82169050919050565b60005b838110156112ff5780820151818401526020810190506112e4565b8381111561130e576000848401525b50505050565b6000600282049050600182168061132c57607f821691505b602082108114156113405761133f611375565b5b50919050565b7f4e487b7100000000000000000000000000000000000000000000000000000000600052601160045260246000fd5b7f4e487b7100000000000000000000000000000000000000000000000000000000600052602260045260246000fd5b6000601f19601f8301169050919050565b7f45524332303a207472616e7366657220746f20746865207a65726f206164647260008201527f6573730000000000000000000000000000000000000000000000000000000000602082015250565b7f45524332303a20617070726f766520746f20746865207a65726f20616464726560008201527f7373000000000000000000000000000000000000000000000000000000000000602082015250565b7f45524332303a20696e73756666696369656e7420616c6c6f77616e6365000000600082015250565b7f45524332303a207472616e7366657220616d6f756e742065786365656473206260008201527f616c616e63650000000000000000000000000000000000000000000000000000602082015250565b7f45524332303a207472616e736665722066726f6d20746865207a65726f20616460008201527f6472657373000000000000000000000000000000000000000000000000000000602082015250565b7f45524332303a20617070726f76652066726f6d20746865207a65726f2061646460008201527f7265737300000000000000000000000000000000000000000000000000000000602082015250565b7f45524332303a2064656372656173656420616c6c6f77616e63652062656c6f7760008201527f207a65726f000000000000000000000000000000000000000000000000000000602082015250565b7f45524332303a206d696e7420746f20746865207a65726f206164647265737300600082015250565b6115ea8161128c565b81146115f557600080fd5b50565b611601816112ca565b811461160c57600080fd5b5056fea26469706673582212200fae42d412673526748de734f9054f1efdd3de47b12db7b61924cb5f9b4b4c5f64736f6c63430008040033",
  "linkReferences": {},
  "deployedLinkReferences": {}
}