{
  "_format": "hh-sol-artifact-1",
  "contractName": "Beast_Token",
  "sourceName": "contracts/beast_token.sol",
  "abi": [
    {
      "inputs": [
        {
          "internalType": "string",
          "name": "name",
          "type": "string"
        },
        {
          "internalType": "string",
          "name": "symbol",
          "type": "string"
        }
      ],
      "stateMutability": "nonpayable",
      "type": "constructor"
    },
    {
      "anonymous": false,
      "inputs": [
        {
          "indexed": true,
          "internalType": "address",
          "name": "owner",
          "type": "address"
        },
        {
          "indexed": true,
          "internalType": "address",
          "name": "spender",
          "type": "address"
        },
        {
          "indexed": false,
          "internalType": "uint256",
          "name": "value",
          "type": "uint256"
        }
      ],
      "name": "Approval",
      "type": "event"
    },
    {
      "anonymous": false,
      "inputs": [
        {
          "indexed": true,
          "internalType": "address",
          "name": "from",
          "type": "address"
        },
        {
          "indexed": true,
          "internalType": "address",
          "name": "to",
          "type": "address"
        },
        {
          "indexed": false,
          "internalType": "uint256",
          "name": "value",
          "type": "uint256"
        }
      ],
      "name": "Transfer",
      "type": "event"
    },
    {
      "inputs": [
        {
          "internalType": "uint256",
          "name": "_tokens",
          "type": "uint256"
        }
      ],
      "name": "addTokens_Beast",
      "outputs": [],
      "stateMutability": "nonpayable",
      "type": "function"
    },
    {
      "inputs": [
        {
          "internalType": "address",
          "name": "owner",
          "type": "address"
        },
        {
          "internalType": "address",
          "name": "spender",
          "type": "address"
        }
      ],
      "name": "allowance",
      "outputs": [
        {
          "internalType": "uint256",
          "name": "",
          "type": "uint256"
        }
      ],
      "stateMutability": "view",
      "type": "function"
    },
    {
      "inputs": [
        {
          "internalType": "address",
          "name": "spender",
          "type": "address"
        },
        {
          "internalType": "uint256",
          "name": "amount",
          "type": "uint256"
        }
      ],
      "name": "approve",
      "outputs": [
        {
          "internalType": "bool",
          "name": "",
          "type": "bool"
        }
      ],
      "stateMutability": "nonpayable",
      "type": "function"
    },
    {
      "inputs": [
        {
          "internalType": "address",
          "name": "to",
          "type": "address"
        },
        {
          "internalType": "uint256",
          "name": "tokens",
          "type": "uint256"
        }
      ],
      "name": "approve_BeastToken",
      "outputs": [
        {
          "internalType": "bool",
          "name": "value",
          "type": "bool"
        }
      ],
      "stateMutability": "nonpayable",
      "type": "function"
    },
    {
      "inputs": [
        {
          "internalType": "address",
          "name": "account",
          "type": "address"
        }
      ],
      "name": "balanceOf",
      "outputs": [
        {
          "internalType": "uint256",
          "name": "",
          "type": "uint256"
        }
      ],
      "stateMutability": "view",
      "type": "function"
    },
    {
      "inputs": [
        {
          "internalType": "address",
          "name": "owner",
          "type": "address"
        }
      ],
      "name": "checkbalance_BeastToken",
      "outputs": [
        {
          "internalType": "uint256",
          "name": "value",
          "type": "uint256"
        }
      ],
      "stateMutability": "view",
      "type": "function"
    },
    {
      "inputs": [],
      "name": "decimals",
      "outputs": [
        {
          "internalType": "uint8",
          "name": "",
          "type": "uint8"
        }
      ],
      "stateMutability": "view",
      "type": "function"
    },
    {
      "inputs": [
        {
          "internalType": "address",
          "name": "spender",
          "type": "address"
        },
        {
          "internalType": "uint256",
          "name": "subtractedValue",
          "type": "uint256"
        }
      ],
      "name": "decreaseAllowance",
      "outputs": [
        {
          "internalType": "bool",
          "name": "",
          "type": "bool"
        }
      ],
      "stateMutability": "nonpayable",
      "type": "function"
    },
    {
      "inputs": [
        {
          "internalType": "address",
          "name": "spender",
          "type": "address"
        },
        {
          "internalType": "uint256",
          "name": "addedValue",
          "type": "uint256"
        }
      ],
      "name": "increaseAllowance",
      "outputs": [
        {
          "internalType": "bool",
          "name": "",
          "type": "bool"
        }
      ],
      "stateMutability": "nonpayable",
      "type": "function"
    },
    {
      "inputs": [],
      "name": "name",
      "outputs": [
        {
          "internalType": "string",
          "name": "",
          "type": "string"
        }
      ],
      "stateMutability": "view",
      "type": "function"
    },
    {
      "inputs": [],
      "name": "symbol",
      "outputs": [
        {
          "internalType": "string",
          "name": "",
          "type": "string"
        }
      ],
      "stateMutability": "view",
      "type": "function"
    },
    {
      "inputs": [],
      "name": "totalSupply",
      "outputs": [
        {
          "internalType": "uint256",
          "name": "",
          "type": "uint256"
        }
      ],
      "stateMutability": "view",
      "type": "function"
    },
    {
      "inputs": [
        {
          "internalType": "address",
          "name": "to",
          "type": "address"
        },
        {
          "internalType": "uint256",
          "name": "amount",
          "type": "uint256"
        }
      ],
      "name": "transfer",
      "outputs": [
        {
          "internalType": "bool",
          "name": "",
          "type": "bool"
        }
      ],
      "stateMutability": "nonpayable",
      "type": "function"
    },
    {
      "inputs": [
        {
          "internalType": "address",
          "name": "from",
          "type": "address"
        },
        {
          "internalType": "address",
          "name": "to",
          "type": "address"
        },
        {
          "internalType": "uint256",
          "name": "amount",
          "type": "uint256"
        }
      ],
      "name": "transferFrom",
      "outputs": [
        {
          "internalType": "bool",
          "name": "",
          "type": "bool"
        }
      ],
      "stateMutability": "nonpayable",
      "type": "function"
    },
    {
      "inputs": [
        {
          "internalType": "address",
          "name": "from",
          "type": "address"
        },
        {
          "internalType": "address",
          "name": "to",
          "type": "address"
        },
        {
          "internalType": "uint256",
          "name": "amount",
          "type": "uint256"
        }
      ],
      "name": "transfer_BeastToken",
      "outputs": [
        {
          "internalType": "bool",
          "name": "value",
          "type": "bool"
        }
      ],
      "stateMutability": "nonpayable",
      "type": "function"
    },
    {
      "inputs": [
        {
          "internalType": "address",
          "name": "to",
          "type": "address"
        },
        {
          "internalType": "uint256",
          "name": "amount",
          "type": "uint256"
        }
      ],
      "name": "transfer_to_BeastToken",
      "outputs": [
        {
          "internalType": "bool",
          "name": "value",
          "type": "bool"
        }
      ],
      "stateMutability": "nonpayable",
      "type": "function"
    }
  ],
  "bytecode": "0x60806040523480156200001157600080fd5b50604051620019cf380380620019cf833981810160405281019062000037919062000197565b818181600390805190602001906200005192919062000075565b5080600490805190602001906200006a92919062000075565b50505050506200037a565b82805462000083906200029f565b90600052602060002090601f016020900481019282620000a75760008555620000f3565b82601f10620000c257805160ff1916838001178555620000f3565b82800160010185558215620000f3579182015b82811115620000f2578251825591602001919060010190620000d5565b5b50905062000102919062000106565b5090565b5b808211156200012157600081600090555060010162000107565b5090565b60006200013c620001368462000233565b6200020a565b9050828152602081018484840111156200015557600080fd5b6200016284828562000269565b509392505050565b600082601f8301126200017c57600080fd5b81516200018e84826020860162000125565b91505092915050565b60008060408385031215620001ab57600080fd5b600083015167ffffffffffffffff811115620001c657600080fd5b620001d4858286016200016a565b925050602083015167ffffffffffffffff811115620001f257600080fd5b62000200858286016200016a565b9150509250929050565b60006200021662000229565b9050620002248282620002d5565b919050565b6000604051905090565b600067ffffffffffffffff8211156200025157620002506200033a565b5b6200025c8262000369565b9050602081019050919050565b60005b83811015620002895780820151818401526020810190506200026c565b8381111562000299576000848401525b50505050565b60006002820490506001821680620002b857607f821691505b60208210811415620002cf57620002ce6200030b565b5b50919050565b620002e08262000369565b810181811067ffffffffffffffff821117156200030257620003016200033a565b5b80604052505050565b7f4e487b7100000000000000000000000000000000000000000000000000000000600052602260045260246000fd5b7f4e487b7100000000000000000000000000000000000000000000000000000000600052604160045260246000fd5b6000601f19601f8301169050919050565b611645806200038a6000396000f3fe608060405234801561001057600080fd5b50600436106101005760003560e01c806370a0823111610097578063a457c2d711610066578063a457c2d7146102e9578063a9059cbb14610319578063dd62ed3e14610349578063fbfcf8661461037957610100565b806370a082311461023b5780637c6f53741461026b57806395d89b411461029b5780639c8e29fe146102b957610100565b8063313ce567116100d3578063313ce567146101a157806339509351146101bf57806362caf554146101ef57806365dd9b251461021f57610100565b806306fdde0314610105578063095ea7b31461012357806318160ddd1461015357806323b872dd14610171575b600080fd5b61010d6103a9565b60405161011a9190611068565b60405180910390f35b61013d60048036038101906101389190610e6a565b61043b565b60405161014a919061104d565b60405180910390f35b61015b61045e565b604051610168919061118a565b60405180910390f35b61018b60048036038101906101869190610e1b565b610468565b604051610198919061104d565b60405180910390f35b6101a9610497565b6040516101b691906111a5565b60405180910390f35b6101d960048036038101906101d49190610e6a565b6104a0565b6040516101e6919061104d565b60405180910390f35b61020960048036038101906102049190610e6a565b6104d7565b604051610216919061104d565b60405180910390f35b61023960048036038101906102349190610ea6565b6104eb565b005b61025560048036038101906102509190610db6565b61050b565b604051610262919061118a565b60405180910390f35b61028560048036038101906102809190610db6565b610553565b604051610292919061118a565b60405180910390f35b6102a3610565565b6040516102b09190611068565b60405180910390f35b6102d360048036038101906102ce9190610e6a565b6105f7565b6040516102e0919061104d565b60405180910390f35b61030360048036038101906102fe9190610e6a565b61060b565b604051610310919061104d565b60405180910390f35b610333600480360381019061032e9190610e6a565b610682565b604051610340919061104d565b60405180910390f35b610363600480360381019061035e9190610ddf565b6106a5565b604051610370919061118a565b60405180910390f35b610393600480360381019061038e9190610e1b565b61072c565b6040516103a0919061104d565b60405180910390f35b6060600380546103b890611314565b80601f01602080910402602001604051908101604052809291908181526020018280546103e490611314565b80156104315780601f1061040657610100808354040283529160200191610431565b820191906000526020600020905b81548152906001019060200180831161041457829003601f168201915b5050505050905090565b600080610446610742565b905061045381858561074a565b600191505092915050565b6000600254905090565b600080610473610742565b9050610480858285610915565b61048b8585856109a1565b60019150509392505050565b60006012905090565b6000806104ab610742565b90506104cc8185856104bd85896106a5565b6104c791906111dc565b61074a565b600191505092915050565b60006104e3838361043b565b905092915050565b61050833670de0b6b3a7640000836105039190611232565b610c22565b50565b60008060008373ffffffffffffffffffffffffffffffffffffffff1673ffffffffffffffffffffffffffffffffffffffff168152602001908152602001600020549050919050565b600061055e8261050b565b9050919050565b60606004805461057490611314565b80601f01602080910402602001604051908101604052809291908181526020018280546105a090611314565b80156105ed5780601f106105c2576101008083540402835291602001916105ed565b820191906000526020600020905b8154815290600101906020018083116105d057829003601f168201915b5050505050905090565b60006106038383610682565b905092915050565b600080610616610742565b9050600061062482866106a5565b905083811015610669576040517f08c379a00000000000000000000000000000000000000000000000000000000081526004016106609061114a565b60405180910390fd5b610676828686840361074a565b60019250505092915050565b60008061068d610742565b905061069a8185856109a1565b600191505092915050565b6000600160008473ffffffffffffffffffffffffffffffffffffffff1673ffffffffffffffffffffffffffffffffffffffff16815260200190815260200160002060008373ffffffffffffffffffffffffffffffffffffffff1673ffffffffffffffffffffffffffffffffffffffff16815260200190815260200160002054905092915050565b6000610739848484610468565b90509392505050565b600033905090565b600073ffffffffffffffffffffffffffffffffffffffff168373ffffffffffffffffffffffffffffffffffffffff1614156107ba576040517f08c379a00000000000000000000000000000000000000000000000000000000081526004016107b19061112a565b60405180910390fd5b600073ffffffffffffffffffffffffffffffffffffffff168273ffffffffffffffffffffffffffffffffffffffff16141561082a576040517f08c379a0000000000000000000000000000000000000000000000000000000008152600401610821906110aa565b60405180910390fd5b80600160008573ffffffffffffffffffffffffffffffffffffffff1673ffffffffffffffffffffffffffffffffffffffff16815260200190815260200160002060008473ffffffffffffffffffffffffffffffffffffffff1673ffffffffffffffffffffffffffffffffffffffff168152602001908152602001600020819055508173ffffffffffffffffffffffffffffffffffffffff168373ffffffffffffffffffffffffffffffffffffffff167f8c5be1e5ebec7d5bd14f71427d1e84f3dd0314c0f7b2291e5b200ac8c7c3b92583604051610908919061118a565b60405180910390a3505050565b600061092184846106a5565b90507fffffffffffffffffffffffffffffffffffffffffffffffffffffffffffffffff811461099b578181101561098d576040517f08c379a0000000000000000000000000000000000000000000000000000000008152600401610984906110ca565b60405180910390fd5b61099a848484840361074a565b5b50505050565b600073ffffffffffffffffffffffffffffffffffffffff168373ffffffffffffffffffffffffffffffffffffffff161415610a11576040517f08c379a0000000000000000000000000000000000000000000000000000000008152600401610a089061110a565b60405180910390fd5b600073ffffffffffffffffffffffffffffffffffffffff168273ffffffffffffffffffffffffffffffffffffffff161415610a81576040517f08c379a0000000000000000000000000000000000000000000000000000000008152600401610a789061108a565b60405180910390fd5b610a8c838383610d82565b60008060008573ffffffffffffffffffffffffffffffffffffffff1673ffffffffffffffffffffffffffffffffffffffff16815260200190815260200160002054905081811015610b12576040517f08c379a0000000000000000000000000000000000000000000000000000000008152600401610b09906110ea565b60405180910390fd5b8181036000808673ffffffffffffffffffffffffffffffffffffffff1673ffffffffffffffffffffffffffffffffffffffff16815260200190815260200160002081905550816000808573ffffffffffffffffffffffffffffffffffffffff1673ffffffffffffffffffffffffffffffffffffffff1681526020019081526020016000206000828254610ba591906111dc565b925050819055508273ffffffffffffffffffffffffffffffffffffffff168473ffffffffffffffffffffffffffffffffffffffff167fddf252ad1be2c89b69c2b068fc378daa952ba7f163c4a11628f55a4df523b3ef84604051610c09919061118a565b60405180910390a3610c1c848484610d87565b50505050565b600073ffffffffffffffffffffffffffffffffffffffff168273ffffffffffffffffffffffffffffffffffffffff161415610c92576040517f08c379a0000000000000000000000000000000000000000000000000000000008152600401610c899061116a565b60405180910390fd5b610c9e60008383610d82565b8060026000828254610cb091906111dc565b92505081905550806000808473ffffffffffffffffffffffffffffffffffffffff1673ffffffffffffffffffffffffffffffffffffffff1681526020019081526020016000206000828254610d0591906111dc565b925050819055508173ffffffffffffffffffffffffffffffffffffffff16600073ffffffffffffffffffffffffffffffffffffffff167fddf252ad1be2c89b69c2b068fc378daa952ba7f163c4a11628f55a4df523b3ef83604051610d6a919061118a565b60405180910390a3610d7e60008383610d87565b5050565b505050565b505050565b600081359050610d9b816115e1565b92915050565b600081359050610db0816115f8565b92915050565b600060208284031215610dc857600080fd5b6000610dd684828501610d8c565b91505092915050565b60008060408385031215610df257600080fd5b6000610e0085828601610d8c565b9250506020610e1185828601610d8c565b9150509250929050565b600080600060608486031215610e3057600080fd5b6000610e3e86828701610d8c565b9350506020610e4f86828701610d8c565b9250506040610e6086828701610da1565b9150509250925092565b60008060408385031215610e7d57600080fd5b6000610e8b85828601610d8c565b9250506020610e9c85828601610da1565b9150509250929050565b600060208284031215610eb857600080fd5b6000610ec684828501610da1565b91505092915050565b610ed88161129e565b82525050565b6000610ee9826111c0565b610ef381856111cb565b9350610f038185602086016112e1565b610f0c816113a4565b840191505092915050565b6000610f246023836111cb565b9150610f2f826113b5565b604082019050919050565b6000610f476022836111cb565b9150610f5282611404565b604082019050919050565b6000610f6a601d836111cb565b9150610f7582611453565b602082019050919050565b6000610f8d6026836111cb565b9150610f988261147c565b604082019050919050565b6000610fb06025836111cb565b9150610fbb826114cb565b604082019050919050565b6000610fd36024836111cb565b9150610fde8261151a565b604082019050919050565b6000610ff66025836111cb565b915061100182611569565b604082019050919050565b6000611019601f836111cb565b9150611024826115b8565b602082019050919050565b611038816112ca565b82525050565b611047816112d4565b82525050565b60006020820190506110626000830184610ecf565b92915050565b600060208201905081810360008301526110828184610ede565b905092915050565b600060208201905081810360008301526110a381610f17565b9050919050565b600060208201905081810360008301526110c381610f3a565b9050919050565b600060208201905081810360008301526110e381610f5d565b9050919050565b6000602082019050818103600083015261110381610f80565b9050919050565b6000602082019050818103600083015261112381610fa3565b9050919050565b6000602082019050818103600083015261114381610fc6565b9050919050565b6000602082019050818103600083015261116381610fe9565b9050919050565b600060208201905081810360008301526111838161100c565b9050919050565b600060208201905061119f600083018461102f565b92915050565b60006020820190506111ba600083018461103e565b92915050565b600081519050919050565b600082825260208201905092915050565b60006111e7826112ca565b91506111f2836112ca565b9250827fffffffffffffffffffffffffffffffffffffffffffffffffffffffffffffffff0382111561122757611226611346565b5b828201905092915050565b600061123d826112ca565b9150611248836112ca565b9250817fffffffffffffffffffffffffffffffffffffffffffffffffffffffffffffffff048311821515161561128157611280611346565b5b828202905092915050565b6000611297826112aa565b9050919050565b60008115159050919050565b600073ffffffffffffffffffffffffffffffffffffffff82169050919050565b6000819050919050565b600060ff82169050919050565b60005b838110156112ff5780820151818401526020810190506112e4565b8381111561130e576000848401525b50505050565b6000600282049050600182168061132c57607f821691505b602082108114156113405761133f611375565b5b50919050565b7f4e487b7100000000000000000000000000000000000000000000000000000000600052601160045260246000fd5b7f4e487b7100000000000000000000000000000000000000000000000000000000600052602260045260246000fd5b6000601f19601f8301169050919050565b7f45524332303a207472616e7366657220746f20746865207a65726f206164647260008201527f6573730000000000000000000000000000000000000000000000000000000000602082015250565b7f45524332303a20617070726f766520746f20746865207a65726f20616464726560008201527f7373000000000000000000000000000000000000000000000000000000000000602082015250565b7f45524332303a20696e73756666696369656e7420616c6c6f77616e6365000000600082015250565b7f45524332303a207472616e7366657220616d6f756e742065786365656473206260008201527f616c616e63650000000000000000000000000000000000000000000000000000602082015250565b7f45524332303a207472616e736665722066726f6d20746865207a65726f20616460008201527f6472657373000000000000000000000000000000000000000000000000000000602082015250565b7f45524332303a20617070726f76652066726f6d20746865207a65726f2061646460008201527f7265737300000000000000000000000000000000000000000000000000000000602082015250565b7f45524332303a2064656372656173656420616c6c6f77616e63652062656c6f7760008201527f207a65726f000000000000000000000000000000000000000000000000000000602082015250565b7f45524332303a206d696e7420746f20746865207a65726f206164647265737300600082015250565b6115ea8161128c565b81146115f557600080fd5b50565b611601816112ca565b811461160c57600080fd5b5056fea264697066735822122066b2afeabd055d4c2cb835f66db8a05d6e8859fb40680af89ba2de41e29bc9fa64736f6c63430008040033",
  "linkReferences": {},
  "deployedLinkReferences": {}
}